:100000000C944F090C9496090C9496090C9496093B
:100010000C9496090C9496090C9496090C949609E4
:100020000C9496090C9496090C94162C0C94D22BD3
:100030000C94692D0C9496090C9496090C949609CD
:100040000C9496090C9496090C9496090C949609B4
:100050000C9496090C94452D0C9496090C949609D1
:100060000C9496090C9496090C9496090C94960994
:100070000C9496090C9496090C9496090C94960984
:100080000C9496090C9496090C9496090C94960974
:100090000C9496090C9496090C9496090C94960964
:1000A0000C9496090C9496090C9496090631FF0954
:1000B00074A1010975150026FF00952075088102BD
:1000C0000976150026FF00952075089102C00501EC
:1000D0000902A10185020901A100050919012908E8
:1000E00015002501950875018102050109300931C6
:1000F0001581257F95027508810609381581257FB0
:10010000950175088106050C0A38021581257F9531
:100110000175088106C0C005010980A10185031988
:10012000012AB700150126B700950175108100C09E
:10013000050C0901A101850419012AA00215012657
:10014000A002950175108100C00660FF0961A10140
:100150000962150026FF00952075088102096315C4
:100160000026FF00952075089102C005010906A12F
:1001700001050719E029E71500250195087501819A
:10018000029501750881010507190029FF15002650
:10019000FF009506750881000508190129059505D8
:1001A00075019102950175039101C00000000000E6
:1001B000000000000000000000000000000000003F
:1001C0000000000000000000000000000000007EB1
:1001D0000F00D4FFFFFFC700000078000000000000
:1001E0000000002A2B280000000000000000000092
:1001F00000000000000029000000002C1E34202117
:100200002224342627252E362D3738271E1F20215D
:1002100022232425263333362E37381F04050607BC
:1002200008090A0B0C0D0E0F1011121314151617D6
:1002300018191A1B1C1D2F3130232D3504050607F4
:1002400008090A0B0C0D0E0F1011121314151617B6
:1002500018191A1B1C1D2F3130354C7267626C69DE
:100260006768742064697361626C65205B45455002
:10027000524F4D5D3A207267626C696768745F63C4
:100280006F6E6669672E656E61626C65203D202524
:10029000750A007267626C6967687420656E6162D6
:1002A0006C65205B454550524F4D5D3A2072676248
:1002B0006C696768745F636F6E6669672E656E61EF
:1002C000626C65203D2025750A007267626C696763
:1002D000687420746F67676C65205B454550524FAA
:1002E0004D5D3A207267626C696768745F636F6E18
:1002F0006669672E656E61626C65203D2025750A12
:100300000044454255473A2064697361626C6564F4
:100310002E0A0044454255473A20656E61626C657D
:10032000642E0A003F00433E20004F6E6573686FE5
:10033000743A206163746976653A2025640A000A7C
:10034000002530325820006B6579626F6172645FFE
:100350007265706F72743A20007267626C696768C8
:10036000745F636F6E6669672E7370656564203DA8
:100370002025640A007267626C696768745F636F46
:100380006E6669672E76616C203D2025640A0072D6
:1003900067626C696768745F636F6E6669672E7306
:1003A0006174203D2025640A007267626C69676889
:1003B000745F636F6E6669672E687565203D2025E2
:1003C000640A007267686C696768745F636F6E6661
:1003D00069672E6D6F6465203D2025640A00726791
:1003E000626C696768745F636F6E6669672E656EBD
:1003F00061626C65203D2025640A007267626C6949
:100400006768745F636F6E66696720454550524F39
:100410004D3A0A007267626C696768745F696E6959
:1004200074207267626C696768745F636F6E666977
:10043000672E6D6F6465203D20302E2057726974E1
:10044000652064656661756C742076616C75657392
:1004500020746F20454550524F4D2E0A007267623E
:100460006C696768745F696E6974206565636F6E37
:10047000666967206973206E6F7420656E61626CB7
:1004800065642E0A007267626C696768745F696EE2
:100490006974207374617274210A007267626C69F6
:1004A0006768745F696E69742063616C6C65642E43
:1004B0000A005B735D000A002530313662003A2085
:1004C0000025303258000A722F6320303132333425
:1004D00035363738394142434445460A001E0F0538
:1004E00000047F3F1F643214643214783C1E1E14D3
:1004F0000A050A0025303258006B6579626F617217
:10050000645F7365745F6C65643A20007267626C47
:10051000696768742064697361626C65205B4E4F23
:10052000454550524F4D5D3A207267626C6967686D
:10053000745F636F6E6669672E656E61626C6520BD
:100540003D2025750A007267626C696768742065D2
:100550006E61626C65205B4E4F454550524F4D5D5C
:100560003A207267626C696768745F636F6E666970
:10057000672E656E61626C65203D2025750A0072EC
:1005800067626C6967687420736574207370656551
:1005900064205B4E4F454550524F4D5D3A202575C6
:1005A0000A00290A002575002F002575005D280026
:1005B000256400200025640020002564002000251B
:1005C00064007C0025303258006D6F7573656B6573
:1005D00079205B62746E7C782079207620685D28B3
:1005E0007265702F61636C293A205B000001010184
:1005F00001010101010102020202020202020203E0
:1006000003030303030303040404040404040505AF
:100610000505050606060606070707070708080872
:1006200008090909090A0A0A0B0B0B0C0C0C0D0D21
:100630000D0E0E0E0F0F0F101011111112121313B9
:100640001414151516161717181819191A1A1B1B32
:100650001C1D1D1E1E1F202021222223242425268E
:1006600026272829292A2B2C2D2D2E2F30313232C6
:10067000333435363738393A3B3C3D3E3F404142D2
:10068000434445464748494A4C4D4E4F50515354B8
:10069000555658595A5B5D5E5F616264656668696C
:1006A0006B6C6D6F7072737577787A7B7D7E8082EC
:1006B000838587888A8C8E8F91939596989A9C9E35
:1006C000A0A2A3A5A7A9ABADAFB1B3B5B7BABCBE45
:1006D000C0C2C4C6C9CBCDCFD1D4D6D8DBDDDFE212
:1006E000E4E7E9EBEEF0F3F5F8FAFDFF7267626C10
:1006F000696768742074696D657220656E61626CEB
:1007000065642E0A007267626C69676874206D6F99
:100710006465205B4E4F454550524F4D5D3A202554
:10072000750A007267626C69676874206D6F646532
:10073000205B454550524F4D5D3A2025750A0072A9
:1007400067626C69676874207365742068737620CB
:100750005B4E4F454550524F4D5D3A2025752C2537
:10076000752C25750A007267626C6967687420735E
:10077000657420687376205B454550524F4D5D3A55
:100780002025752C25752C25750A007267626C6909
:10079000676874207261696E626F77207365742078
:1007A0006873763A2025642C25642C25642C2575E5
:1007B0000A00FFAA7F55407267626C6967687420FF
:1007C00074696D65722064697361626C652E0A00DC
:1007D0002223252628292A2C2D2F3032333536384E
:1007E0003A3B3D3E4042434547494A4C4E505153A7
:1007F0005557595A5C5E6062646668696B6D6F71CB
:10080000737577797B7D7F81838587898A8C8E90CC
:10081000929496989A9C9E9FA1A3A5A7A8AAACAED5
:10082000AFB1B3B4B6B8B9BBBCBEBFC1C2C3C5C615
:10083000C7C9CACBCCCDCED0D1D2D2D3D4D5D6D7BE
:10084000D7D8D9D9DADADBDBDBDCDCDCDCDCDDDDFC
:10085000DDDDDCDCDCDCDCDBDBDBDADAD9D9D8D7EC
:10086000D7D6D5D4D3D2D2D1D0CECDCCCBCAC9C78E
:10087000C6C5C3C2C1BFBEBCBBB9B8B6B4B3B1AFC5
:10088000AEACAAA8A7A5A3A19F9E9C9A9896949265
:10089000908E8C8A89878583817F7D7B797775733C
:1008A000716F6D6B6968666462605E5C5A5957551A
:1008B0005351504E4C4A4947454342403E3D3B3AD6
:1008C0003836353332302F2D2C2A2928262523225D
:1008D0006B65796D61705F636F6E6669672E7261BB
:1008E000773A20253032580A2E737761705F636F34
:1008F0006E74726F6C5F636170736C6F636B3A20C0
:1009000025750A2E636170736C6F636B5F746F5F24
:10091000636F6E74726F6C3A2025750A2E7377615F
:10092000705F6C63746C5F6C6775693A2025750A3B
:100930002E737761705F7263746C5F726775693A6A
:100940002025750A2E737761705F6C616C745F6C23
:100950006775693A2025750A2E737761705F726139
:100960006C745F726775693A2025750A2E6E6F5F29
:100970006775693A2025750A2E737761705F677213
:100980006176655F6573633A2025750A2E7377611A
:10099000705F6261636B736C6173685F6261636BEC
:1009A00073706163653A2025750A2E6E6B726F3A1B
:1009B0002025750A0064656275675F636F6E6669FE
:1009C000672E7261773A20253032580A2E656E61A3
:1009D000626C653A2025750A2E6D61747269783AE9
:1009E0002025750A2E6B6579626F6172643A202545
:1009F000750A2E6D6F7573653A2025750A00656559
:100A0000636F6E6669673A0A64656661756C745FE8
:100A10006C617965723A2025750A000A092D204D0E
:100A200061676963202D0A443A094465627567204D
:100A30004D65737361676520546F67676C650A580D
:100A40003A094D6174726978204465627567204D7A
:100A50006F646520546F67676C65202D2053686F45
:100A600077206B65797072657373657320696E208A
:100A70006D617472697820677269640A4B3A094B38
:100A80006579626F61726420446562756720546F96
:100A900067676C65202D2053686F77206B657970D0
:100AA00072657373207265706F72740A4D3A0944EF
:100AB00065627567204D6F75736520546F67676C4D
:100AC000650A563A0956657273696F6E0A533A0998
:100AD0005374617475730A433A09416374697661AA
:100AE000746520436F6E736F6C65204D6F64650A8B
:100AF00046312D4631303A09537769746368207462
:100B00006F204C6179657220302D392028463130B4
:100B1000203D204C30290A302D393A095377697429
:100B2000636820746F204C6179657220302D390A1A
:100B300047524156453A0953776974636820746F88
:100B4000204C6179657220302028616C7465726E6A
:100B5000617465290A423A094A756D7020746F20E4
:100B6000426F6F746C6F616465720A4553433A0952
:100B70004A756D7020746F20426F6F746C6F616482
:100B800065722028616C7465726E617465290A450E
:100B90003A095072696E7420454550524F4D2053AA
:100BA000657474696E67730A4253504143453A094C
:100BB000436C65617220454550524F4D0A000A0949
:100BC0002D20436F6E736F6C65202D0A4553432FA4
:100BD000713A09717569740A6D3A096D6F757365BB
:100BE0006B65790A000A092D2056657273696F6E6C
:100BF000202D0A5649443A20307846323145285053
:100C00006978656C737061636529205049443A20A6
:100C10003078364536452863617073756C653635B6
:100C200029205645523A203078303030310A42552A
:100C3000494C443A2020284170722020352032301F
:100C40003232290A4F5054494F4E533A204C5546A0
:100C500041204D4F5553454B45592045585452411D
:100C60004B455920434F4E534F4C4520434F4D4D1C
:100C7000414E44204C544F20343039360A474343C8
:100C80003A20382E342E30204156522D4C494243C2
:100C90003A20322E302E30204156525F4152434886
:100CA0003A20617672350A000A092D205374617466
:100CB0007573202D0A686F73745F6B6579626F615D
:100CC00072645F6C65647328293A20253032580AB3
:100CD0006B6579626F6172645F70726F746F636F5E
:100CE0006C3A20253032580A6B6579626F61726404
:100CF0005F69646C653A20253032580A74696D6505
:100D0000725F72656164333228293A202530386C6D
:100D1000580A003F000A6D6F7573653A206F66666A
:100D20000A000A6D6F7573653A206F6E0A000A6BD0
:100D30006579626F6172643A206F66660A000A6BB9
:100D40006579626F6172643A206F6E0A000A6D61A4
:100D5000747269783A206F66660A000A6D6174726F
:100D600069783A206F6E0A000A64656275673A20F6
:100D70006F66660A000A64656275673A206F6E0ADC
:100D8000000A0A4A756D70696E6720746F20626F81
:100D90006F746C6F616465722E2E2E2000433E20AE
:100DA00000436C656172696E6720454550524F4D36
:100DB0000A00313A0964656C6179282A31306D7313
:100DC000293A2025750A323A09696E74657276618E
:100DD0006C286D73293A2025750A333A096D6178BC
:100DE0005F73706565643A2025750A343A09746941
:100DF0006D655F746F5F6D61783A2025750A353ACD
:100E000009776865656C5F6D61785F7370656564AF
:100E10003A2025750A363A09776865656C5F74690A
:100E20006D655F746F5F6D61783A2025750A00709B
:100E30003A097072696E742076616C7565730A6424
:100E40003A097365742064656661756C74730A751C
:100E5000703A092B310A646E3A092D310A6C743AE2
:100E6000092B31300A72743A092D31300A45534347
:100E70002F713A09717569740A0A73706565642087
:100E80003D2064656C7461202A206D61785F737009
:100E9000656564202A2028726570656174202F20A2
:100EA00074696D655F746F5F6D6178290A77686535
:100EB00072652064656C74613A20637572736F7239
:100EC0003D25642C20776865656C3D25640A536573
:100ED0006520687474703A2F2F656E2E77696B6980
:100EE00070656469612E6F72672F77696B692F4D2A
:100EF0006F7573655F6B6579730A004D3E20004D19
:100F000025753A25733E20003F0A003D2025750ACD
:100F1000003F0A0064656661756C74730A0025758C
:100F20000A003F0A000A092D2056616C756573207E
:100F30002D0A00710A000A092D204D6F7573656B2B
:100F40006579202D0A004C25640A0029001E001F27
:100F50000020002100220023002400250026002775
:100F6000002D002E002A004A004C002B0014001A0D
:100F7000000800150017001C0018000C00120013D8
:100F8000002F003000310000004D00390004001631
:100F900000070009000A000B000D000E000F0033CF
:100FA0000034002800000000004B00E10001001D9B
:100FB000001B000600190005001100100036003764
:100FC000003800E500520000004E00E000E300E2BF
:100FD00000000000002C000000000000000151E4AF
:100FE00000C25C5000510000004F00005C01000195
:100FF00000010001000100010001000100010001E9
:10100000000100010001000100C25C0100010001BB
:1010100000010001000100010001000100010001C8
:1010200000010001000100000001000100010001B9
:1010300000010001000100010001000100010001A8
:10104000000100010000000000010001000100019A
:101050000001000100010001000100010001000188
:101060000001000100C95C00000100010001000155
:101070000000000000C35C0000000000000100014F
:10108000000100C55CCA5C0000C65C005C01000198
:101090000001000100010001000100010001000148
:1010A0000001000100010001000100010001000138
:1010B0000001000100010001000100010001000128
:1010C0000001000100010000000100010001000119
:1010D0000001000100010001000100010001000108
:1010E00000010001000000000001000100010001FA
:1010F00000010001000100010001000100010001E8
:1011000000010001000100000001000100010001D8
:1011100000000000000100000000000000010001CC
:101120000001000100010000000100005C0100015D
:1011300000010001000100010001000100010001A7
:101140000001000100010001000100010001000197
:101150000001000100010001000100010001000187
:101160000001000100010000000100010001000178
:101170000001000100010001000100010001000167
:101180000001000100000000000100010001000159
:101190000001000100010001000100010001000147
:1011A0000001000100010000000100010001000138
:1011B000000000000001000000000000000100012C
:1011C00000010001000100000001005B435D005BC5
:1011D000445D005B535D005B575D005B525D000941
:1011E000027B00040100A0FA0904000001030101D0
:1011F00000092111010001224000070581030800B8
:101200000A09040100020300000009211101000184
:1012100022220007058203200001070503032000A6
:10122000010904020001030000000921110100016D
:10123000227B000705840320000A0904030002033F
:101240000000000921110100012222000705850389
:101250002000010705050320000112010002000023
:1012600000081EF26E6E010001020001140363000B
:1012700061007000730075006C0065003600350079
:101280000000160350006900780065006C007300D0
:10129000700061006300650000000403090411246C
:1012A0001FBECFEFDAE0DEBFCDBF04B603FE27C01E
:1012B0008091140390911503A0911603B091170328
:1012C0008730904BA740B04BD1F41092140310928A
:1012D0001503109216031092170314BE84B7877F6C
:1012E00084BF0FB6F894A8958091600088618093C0
:1012F0006000109260000FBEE0E0F8E3099523E083
:10130000A8E0B2E001C01D92A431B207E1F712E0FB
:10131000A0E0B1E0E2EFFBE602C005900D92A8303C
:10132000B107D9F70E94902D0C94C0350C940000A1
:10133000FF93EF93E0910802F0910902309709F0D2
:101340000995EF91FF910895FC018591803011F08E
:10135000EFDFFBCF0895FF27E0E230E247FF0CC04C
:10136000419597FF09C0EDE2609570958095909545
:10137000611D711D811D911D27FF02C0219530E364
:1013800050E2AA27660F771F881F991FAA1FA4176C
:1013900010F0A41B63955A95A9F7AA3008F0A95F2D
:1013A000A05DAF93F395611571058105910541F736
:1013B000ED3211F4EF93F395F21718F43F93F39590
:1013C000FBCF8F91B5DFFA95E1F70895E991F99197
:1013D0008591803021F0853219F0AADFF9CF089588
:1013E00020E0E89455915532C1F3503311F46894DC
:1013F00055915A3348F4505390F3220F022E220F86
:10140000220F200D250FF4CF0EF42195899199918B
:10141000533619F3533729F1533559F1BC01882755
:101420009927E8945C3621F48991999168945591B3
:10143000543639F446EF7EF077FF0DC08FEF9FEF03
:101440000AC055374AE039F0583540E121F05236AC
:1014500042E009F00895FF93EF937DDFEF91FF9154
:10146000B7CFFF93EF93FC0181918030B9F360DF38
:10147000FBCFFF93EF9368DFF1CFDF93CF93CDB72F
:10148000DEB72596A3DFCF91DF910895E8EDF0E078
:1014900080818E7F80831092E2001092DA00109299
:1014A000E100A0EEB0E08C9181608C9380818F7719
:1014B000808319BCA7EDB0E08C918E7F8C938081E6
:1014C0008F7E80831092F90208952091E40030917C
:1014D000E50095E6A9012091EC00822F817020FFA4
:1014E00006C08091E80080FF06C080E0089520914A
:1014F000E80022FD1AC080910603882389F0853018
:1015000089F08091EB0085FD0FC02091E4003091BF
:10151000E50042175307F9F29150E1F684E008958F
:1015200082E0089583E0089581E00895EF92FF92AC
:101530000F931F93CF937C018B010E94650AC82FE4
:10154000811117C08091E80085FD0BC08091E800F3
:101550008E778093E8000E94650A882399F3C82F4C
:1015600008C0F70181917F018093F10001501109BA
:1015700049F78C2FCF911F910F91FF90EF90089515
:101580008091080387FF13C08091E80082FF06C0A6
:101590008091E8008B778093E80004C08091060377
:1015A0008111F2CF0895809106038823D9F38091A9
:1015B000E80080FFF8CF8091E8008E77ECCF982F7D
:1015C0009093E900242F762F50E0891731F0709125
:1015D000EC002091ED005091F00021FD07C09F5FCD
:1015E000973071F78093E90081E008953091EB0026
:1015F0003E7F3093EB003091ED003D7F3093ED0066
:101600003091EB0031603093EB007093EC0020934D
:10161000ED005093F0002091EE0027FDE0CF80E038
:101620000895CF92DF92EF92FF920F931F93CF9383
:10163000DF93C8EDD0E088818F7E8883E7EDF0E00E
:1016400080818160808384E082BF81E08093F902A1
:1016500088818E7F888302EE10E0F801108210925C
:10166000DA0081EEC82ED12CF601108288818F77A6
:10167000888388818068888388818F7D888319BC6E
:1016800010920603109207031092050310920403B0
:1016900090EEE92EF12CF70180818B7F8083888189
:1016A0008160888342E060E080E00E94DF0AF6010A
:1016B00080818E7F8083F80180818160808380813A
:1016C00088608083F70180818E7F8083888180613C
:1016D0008883DF91CF911F910F91FF90EF90DF9062
:1016E000CF900895FC0180910E0390910F0386170F
:1016F0009707A0F06115710529F49091E8009E7795
:101700009093E80090E06115710551F4911108C0C3
:101710008091E80082FF34C080E00895BC01F2CFE0
:10172000809106038823C1F18530C1F18091E800E2
:1017300083FD30C08091E80082FDEACF8091E8000F
:1017400080FFE1CF8091F3002091F200382F6115E6
:10175000710519F02830310558F091E02830310535
:1017600009F090E02091E8002E772093E800CBCF9D
:1017700081918093F100615071092F5F3F4FE7CF56
:1017800080910603882341F0853041F08091E80084
:1017900083FFBECF81E0089582E0089583E008953D
:1017A00008958091FB0208959C014FB7F8948091B1
:1017B000EF029091F002A091F102B091F2024FBFBE
:1017C000821B930B08952FB7F8948091EF029091AC
:1017D000F002A091F102B091F2022FBF08959C0196
:1017E000FC0132969FEF80E04191461751F09F3FF8
:1017F00019F4411101C0982F8F5F8630A9F79F3FE0
:1018000009F40895290F311D97FD3A95F901628376
:1018100008952091EC023091ED022817390771F0FC
:101820009093ED028093EC02E091EA02F091EB02DA
:10183000309721F00084F185E02D099408952091DE
:10184000E8023091E9022817390771F09093E90214
:101850008093E802E091EA02F091EB02309721F0E8
:101860000680F781E02D09940895E091EA02F09155
:10187000EB02309721F00190F081E02D099480E097
:101880000895FA01811101C0FB0109940895809126
:10189000DC02982F9E7F29F4817082608093DC02A5
:1018A00008958635E8F381708465F8CFAF92BF92D2
:1018B000DF92EF92FF920F931F93CF93DF93082F46
:1018C000162FE901E42FF0E0E451FA4F611110C046
:1018D000E4915E2F4E2F4983E8835A83DF91CF91A5
:1018E0001F910F91FF90EF90DF90BF90AF90089500
:1018F000E62EF12C4491D42EE42FF0E026E0829FD6
:10190000C00111242FEF30E0B9010E945B34802F19
:1019100090E0880F991F55E5569FD001579FB00D55
:1019200011248A1B9B0B982F990F890F5901AE1810
:10193000BF08AE9ED001AF9EB00DBE9EB00D11246B
:101940005B2F189F80011124012F11275901A01A24
:10195000B10AAE9E8001AF9E100DBE9E100D1124E7
:101960005901A81AB108AE9CC001AF9C900DBE9C55
:10197000900D1124892F9927281B390B2E9FC00108
:101980002F9F900D3E9F900D1124E92F623071051D
:10199000A1F050F46115710509F49DCF6130710516
:1019A00081F0EB2F512F97CF6430710569F080F0F3
:1019B0006630710509F48FCFF4CFE42F4B2F592FE8
:1019C0008ACFE42F412F87CFEB2F542F492F83CF7E
:1019D0004B2F5D2DE12F7FCF40919D02803F59F429
:1019E00080919E0287FF0DC010929E0241110BC094
:1019F0001092960208C0813F81F480919E021816D1
:101A00009CF3442381F080919F029091A002892B46
:101A100009F05AC0109294020895823F49F447FF9A
:101A2000F0CF10929D0280919E028111ECCFE0CF09
:101A3000833F19F41416ACF3E4CF90919F02893FD1
:101A400029F41916F4F610929F02DBCF8A3F19F49D
:101A500097FFD7CFF8CF9091A0028B3F29F497FF43
:101A6000D0CF1092A002CDCF8C3F19F41916CCF331
:101A7000C8CF9CE0980F953090F4845F990B21E0DB
:101A800030E0B90102C0660F771F8A95E2F7CB01FB
:101A9000809590919C02892380939C02B2CF8D3FC8
:101AA00031F4809195028E7F80939502AACF8E3F6C
:101AB00021F4809195028D7FF7CF8F3F09F0A1CF60
:101AC000809195028B7FF0CF08958091950280FFE1
:101AD0000CC060911F0170E07595679575956795CD
:101AE0006115710549F1862F089581FF06C0609147
:101AF0001F0170E075956795F3CF60911F0182FD1E
:101B00000BC0909194029923A1F060911E018091E5
:101B10001F01961738F0682F70E06038710500F3E8
:101B20008FE70895899FC001112470E00E946F34EF
:101B3000F4CF61E070E0D7CF81E008958091950205
:101B400080FF12C06091210185E0689FB0011124DF
:101B5000759567957595679560387105A8F5611558
:101B60007105A1F1862F089581FF09C060912101BF
:101B700085E0689FB001112475956795EDCF609160
:101B8000210182FD0AC0809196028823D1F09091B4
:101B9000200160912101891728F085E0689FB0013C
:101BA0001124DACF869FB001112485E0869F900131
:101BB000879F300D1124692F70E0C9010E946F3496
:101BC000CBCF65E070E0CECF8FE7089581E0089538
:101BD000803F31F40E949E0D819580939E0208956E
:101BE000813F19F40E949E0DF8CF823F31F40E948C
:101BF0009E0D819580939D020895833F19F40E9464
:101C00009E0DF8CF893F29F40E94650D80939F02B5
:101C100008958A3F21F40E94650D8195F7CF8B3F8F
:101C200031F40E94650D81958093A00208958C3F48
:101C300019F40E94650DF8CF9CE0980F953070F470
:101C4000845F990B21E030E001C0220F8A95EAF70A
:101C500080919C02822B80939C0208958D3F31F4E9
:101C60008091950281608093950208958E3F21F4C2
:101C7000809195028260F7CF8F3FB9F780919502EE
:101C80008460F1CFF894E82FE295EF70F0E031A195
:101C9000282F2F7081E090E001C0880F2A95EAF785
:101CA000982F9095932391A392A1892B82A3789446
:101CB00008959091720292FF06C0282F2871283053
:101CC000F9F4877F846093FF06C0282F287128319C
:101CD000F1F4877E84612091730220FF06C0382FC3
:101CE00038713830D9F4877F816021FF06C0282FF2
:101CF00028712831D1F4877E816194FD877E089513
:101D0000282F24712430F9F68B7F8860DCCF282FB0
:101D10002471243101F78B7E8861DDCF382F31713A
:101D2000313019F78E7F8860E0CF282F2171213163
:101D300021F78E7E8861E1CFCF93DF93EC0182386B
:101D40009105A9F1D8F58133910509F496C048F5BC
:101D50008932910509F48AC08A9709F495C0C115A2
:101D600021E5D20708F0BCC0C11530E5D30708F063
:101D700014C1C83ED10508F09CC0C03ED10560F535
:101D8000C83AD10508F087C0C53AD10508F0FDC0B2
:101D9000C130D10509F12097F9F0C430D105E0F444
:101DA00040C08533910509F45AC0C997C1F68091A6
:101DB0007202837089F0C0EED0E00EC0833E9105C0
:101DC00099F170F4803E910501F1823E910539F65A
:101DD0008091720282FD21C0CE01DF91CF910895E2
:101DE000863E910561F1873E910571F1843E910532
:101DF00009F0B5CF8091730281FFEECF809172021E
:101E0000C7EED0E084FD0DC0E7CF8091720280FD67
:101E100012C19091730290FFDFCFC3EED0E084FF38
:101E2000DBCFD0E0C0E0D8CF8091720282FD06C146
:101E30009091730290FDBFCF84FFCECFF2CF8091FF
:101E4000720283FDDDCFC8CF8091720283FDF9C09D
:101E50009091730291FFF0CFC4EED0E0BDCF80919E
:101E6000720285FFB9CFC9E2D0E0B6CF809172028D
:101E700085FFB2CFC5E3D0E0AFCF8091720286FF7D
:101E8000ABCFCAE2D0E0A8CF8091720286FFA4CF88
:101E9000C1E3D0E0A1CFCF3BD10518F6C85AD0E0BE
:101EA000CC0FDD1FCB57DE4F0990D881C02DD464F5
:101EB00093CFC11540E2D40758F4C11581E0D8078B
:101EC00008F08ACFC03FD10508F4ABCFD06584CFEE
:101ED000C11590E4D90708F4A4CFDF70D06A7CCF95
:101EE000C11525E5D20700F5C11534E5D30708F083
:101EF0008AC0C11543E5D40708F071C0C11582E559
:101F0000D80708F467C0CE018370992721E030E03C
:101F100002C0220F331F8A95E2F7C695C69580E26C
:101F2000C89FE001112452C0C11599E5D907A8F452
:101F3000C11528E5D20708F06BC0C11536E5D307F7
:101F400008F06FCF8C2F0E94590EC82FD0E0DC2FE5
:101F5000CC27CC27DF71D0623FCFC1154AE5D4072B
:101F600008F45BC0CE0190568115904208F059CF1D
:101F70008D2F8F710E94590E90E0982F8827882707
:101F80009F719C012C2BE901E6CFC55AD0E0CE57BA
:101F9000DE4FC881D0E0D0641FCFCE01E4E096953B
:101FA0008795EA95E1F783702C2F26952695237067
:101FB00040E2249F90011124382B8C2F8370C1E0C4
:101FC000D0E002C0CC0FDD1F8A95E2F7C22BD32BE5
:101FD000DC6802CFDC2FCC27C16FD06AFDCECE01EA
:101FE0008370992721E030E002C0220F331F8A95C9
:101FF000E2F7C695C69590E2C99FE0011124C22B75
:10200000D32BDA68E9CEDC2FCC27C46FD06AE4CEBC
:10201000DC2FCC27C06FD06ADFCE8C2F8F700E9450
:10202000590E34E0D695C7953A95E1F7CF709C2FBD
:10203000EC01D069D1CEC9E3D0E0CECEC2EED0E083
:10204000CBCEC6EED0E0C8CE80916D028111109249
:102050006D020895809590916C02982390936C0284
:1020600008958091680290913702981301C00895F5
:102070008F5F8770FACF9295907F890F982F977016
:1020800086958695869523E0829FF0011124ED5E6A
:10209000FD4F50E040E080E0219130E0092E02C089
:1020A000369527950A94E2F721703327042E01C054
:1020B000220F0A94EAF7822B4F5F5F4F433051059E
:1020C00059F708959295907F890F982F977041E066
:1020D00001C0440F9A95EAF786958695869593E018
:1020E000899FF0011124ED5EFD4F30E020E070E0AB
:1020F0005191DF011197CB01022E02C09695879571
:102100000A94E2F7817081958527842385278C9333
:102110002F5F3F4F2330310559F7089581FF02C0EB
:102120008E9A08958E980895829590E09C01220FD2
:10213000331F220F331F2C7C959587959595879596
:102140008373282B30E0C901880F991F8A7A35954F
:1021500027952575822B08959FB7F8941092F70262
:102160009FBF90910603943009F048C02091E90088
:102170002F703091EC00932F917030FD90E8922BEE
:1021800025E02093E9002091EB0020FF34C020914E
:10219000EE0027FF30C02091F602222321F020918B
:1021A000E80025FF28C01092F60226E03091E800F2
:1021B00035FF14C08093F1008091E80085FD27C0B1
:1021C0008091E80080FFFCCF8091E8008E778093BB
:1021D000E8009F709093E90080E008953091060335
:1021E000343049F43091EB0035FD05C0215041F405
:1021F00081E08093F6029F709093E9008FEF08953D
:10220000EFE9FFE03197F1F700C00000CFCF8FB7C3
:10221000F89421E02093F7028FBFDBCF8093F30285
:102220007093F5026093F402809106038430F9F410
:102230008093E9008FEF9091E800815095FD06C0F2
:1022400095ED9A95F1F700008111F5CF8091E800A6
:1022500085FF0DC050E040E063E070E083EF92E066
:102260000E94960A8091E8008E778093E800089596
:10227000BC0184E00C940E11BC0183E00C940E119F
:102280009C0184E08093E9009FEF8091E8009150E9
:1022900085FD06C085ED8A95F1F700009111F5CF17
:1022A0008091E80085FF0CC050E040E066E070E0FF
:1022B000C9010E94960A8091E8008E778093E80019
:1022C0000895CF93DF93EC0181E08093E9008FEFD5
:1022D0009091E800815095FD06C095ED9A95F1F733
:1022E00000008111F5CF8091E80085FF14C050E017
:1022F00040E068E070E0CE010E94960A8091E8001C
:102300008E778093E80088E0FE01ACEFB2E00190A8
:102310000D928A95E1F7DF91CF91089581E0809346
:10232000E00080E28093D8001092C9008FE19EE423
:102330000197F1F700C0000087E090EBDC0180938B
:10234000140390931503A0931603B093170388E129
:102350009CE00FB6F894A895809360000FBE909310
:102360006000FFCF8091DC0280FD0AC0ECEAF2E061
:10237000118210821282339652E0EE3BF507C1F7CC
:10238000879A31B33F7721B320684FB7F8948CEA2E
:1023900092E0FC015191CF0168E021BB000000C038
:1023A00057FF31BB550F000000C000C000C031BB5B
:1023B00000C06A9591F7F2E08E3B9F0751F74FBF3F
:1023C0008FE594E00197F1F700C000000895EF92C7
:1023D000FF920F931F93CF93DF938C01CCEAD2E04F
:1023E000F12CE12CF80194816091DE028091DD02F4
:1023F000F3E0EF16F104FCF49923F9F09E0140910B
:10240000DF020E94560C2FEFE21AF20A239686E0B2
:10241000E816F10439F70E94B211F801848190E0C6
:102420000196817099278483DF91CF911F910F913D
:10243000FF90EF900895992309F39E0140E0E1CFCA
:102440008F929F92AF92BF92CF92DF92EF92FF92C4
:102450000F931F93CF93DF93EC014C81042F10E077
:102460009801D8010E94B1359B01AC010E947C35D6
:102470004B015C01E0E2F0E0E01BF10BA5E5B0E010
:10248000AC019B010E947C356B017C019F01DF0147
:102490000E9490349B01AC010E9487359B01AC01E6
:1024A000280D391D4A1D5B1DC701B6010E948F35DD
:1024B000F22E822F90E039E23F15D8F143E0249FBD
:1024C0009001112435952795122F10959CEAC92E5D
:1024D00092E0D92E00E085E5E82EEF188E2D01FD63
:1024E0008F2D9601412F6091DE020E94560C0F5FE6
:1024F00053E0C50ED11C063089F70E94B2119C81B1
:1025000081E0992319F0903219F48FEF80931D0127
:1025100080911D01890F8C83DF91CF911F910F91C5
:10252000FF90EF90DF90CF90BF90AF909F908F90F3
:10253000089525E530E0A901481B590BCA019A010D
:10254000220F331F280F391F37FFBCCF2F5F3F4F9C
:10255000B9CF0F931F93CF93DF93CCEAD2E0FE0164
:10256000118210821282339682E0EE3BF807C1F7A7
:1025700010E000E08091AA02082E000C990B0817C9
:1025800019078CF180911C01082E000C990B801703
:1025900091074CF19E014091DF026091DE02809133
:1025A000DD020E94560C0F5F1F4F23960630110567
:1025B00009F70E94B21180911B019091AA02980F15
:1025C0009093AA0220911C01280F20931C0112163F
:1025D00014F495301CF0819580931B01DF91CF910D
:1025E0001F910F910895198218821A82DCCFCF9221
:1025F000DF92EF92FF920F931F93CF93DF93FC0133
:102600008281DD24DA9480FD02C0DD24D3940CEABB
:1026100012E0D0E0C0E0F80111821082128294E052
:10262000E92EF12CC12C8091A9028C0D873024F069
:10263000982F990F890F880F87FD8A5F082E000C4D
:10264000990B8C179D0791F48091DF028E9DA0015C
:102650008F9D500D11245595479555954795980197
:102660006091DE028091DD020E94560CCD0CF1E0FB
:10267000EF1AF108C1F621960D5F1F4FC630D10544
:1026800051F60E94B2118091A90291E0D91210C0B6
:1026900081110CC085E08093A902DF91CF911F9139
:1026A0000F91FF90EF90DF90CF9008958150F3CF7E
:1026B00090E00196BE010E946F34EDCFEF92FF9241
:1026C0001F93CF93DF93EC018CEAE82E82E0F82E83
:1026D00010E08C8197014091DF026091DE02810F52
:1026E0000E94560C165D83E0E80EF11C1C3F89F732
:1026F0000E94B2119A818C8190FF08C08F5F8C83F9
:10270000DF91CF911F91FF90EF9008958150F7CF07
:102710009091DC0290FF0CC0ECEAF2E081836083D0
:102720004283339692E0EE3BF907C1F70C94B21165
:1027300008950F931F93CF93DF9300D00F92CDB7DF
:10274000DEB78C018091AB0281110AC09E012F5F20
:102750003F4F4FEF6FEF0E94560C8A818093AB0280
:10276000F8016481613069F08091AB0240E066233A
:1027700061F040E0623011F44091AB0280E060E033
:1027800004C06091AB0240E080E00E948813F80131
:10279000848190E0019663E070E00E946F3484834E
:1027A0000F900F900F90DF91CF911F910F9108958F
:1027B000CF93DF9300D00F92CDB7DEB79091DC02BC
:1027C00090FF0AC09E012F5F3F4F0E94560C4B8125
:1027D00069818A810E9488130F900F900F90DF917A
:1027E000CF910895CF93DF93EC01ECEDF2E04381BC
:1027F00062818C810E94D8138C818F5F8C83DF91E2
:10280000CF910895CF93DF93EC01EC81F0E0E0539A
:10281000F84F4491ECEDF2E0628181810E94D8137F
:102820008C818F5F8C83DF91CF910895CF93DF935D
:10283000C7EAD2E060E0CE010E9429352196C11599
:1028400084E0D807B9F7DF91CF9108956F927F9216
:102850008F929F92AF92BF92CF92DF92EF92FF92B0
:102860000F931F93CF93DF938BE4C82E8FE0D82E66
:1028700007EE10E0E801C05AD10936011CC0F5018D
:1028800085909490692DC7010E942935682DC70154
:1028900001960E94293582E0A80EB11C82E0E80E64
:1028A000F11CCE15DF0559F780E2680E711CA09669
:1028B0000C171D0731F07E0180E2E81AF108530180
:1028C000DECF00561F4F80EAC80ED11C073683E0CA
:1028D000180781F6DF91CF911F910F91FF90EF9034
:1028E000DF90CF90BF90AF909F908F907F906F9030
:1028F0000895CF93C82F6FEF811162E283E290E0D9
:102900000E9429356FEFC11164E084E290E00E94DB
:1029100029356FEFC11165E085E290E0CF910C940D
:10292000293580E00E94791460E086E290E00E9400
:1029300029350E9426140E94161481E00C94791403
:102940000F931F93CF93DF9320E2629FE001112446
:1029500050E0440F551FC40FD51F30EA839FC00DB0
:10296000D11D1124CE0187960E941535082F10E045
:10297000102F0027CE0188960E9415359801282B2C
:10298000C901DF91CF911F910F910895462F843097
:1029900038F4753028F4603118F4672F0C94A014C3
:1029A00090E080E00895CF92DF92FF920F931F9303
:1029B000CF93DF936C010091130380916E02082B7B
:1029C000C7E0D0E010E0FC2EC8010C2E02C09595A7
:1029D00087950A94E2F780FD0CC02197A0F7F12CAF
:1029E0008F2DDF91CF911F910F91FF90DF90CF90AE
:1029F0000895B6018C2F0E94C6140E949C0E019768
:102A000061F3EECFCF93DF93EC010E94D314BE01AC
:102A10000E94C614DF91CF910C949C0EFC01808122
:102A200091810E940215292F2F7092959F709250CC
:102A30009E3078F4E92FF0E0EE53FA4C0C94833496
:102A4000803F19F020F4883E20F481E00895843F0F
:102A5000E1F380E00895883EC0F3813FD1F7F5CFE0
:102A6000822F869586958695089583E290E00E9450
:102A70001535823289F484E290E00E941535843065
:102A800059F485E290E00E94153591E0853009F017
:102A900090E0892F8170089580E0FCCFCF9384E08F
:102AA00090E00E941535C82F82E290E00E94153513
:102AB000982F8C2FCF91089580911E011F928F9394
:102AC00080911F011F928F93809120011F928F93FD
:102AD000809121011F928F93809122011F928F93E9
:102AE000809123011F928F9382EB9DE09F938F93A0
:102AF0000E943D0A8DB79EB70E960FB6F8949EBF02
:102B00000FBE8DBF0895883228F58E3108F072C04F
:102B10008B3041F130F4873009F4CFC081E19FE080
:102B2000E0C0833109F45FC08431C1F783E39FE0E3
:102B30000E94A4098091E702882309F4FEC0109244
:102B4000E7021092E6021092E5021092E40210925F
:102B5000E30220C08F3409F4C7C0D8F5893231F3BD
:102B60008833E1F686E39FE00E94A4090E945C1589
:102B70001F9281E08F931F9285E08F938FE29EE0FA
:102B80009F938F930E943D0A0F900F900F900F908C
:102B90000F900F902091E702222309F4C9C0809181
:102BA000E3029091E402009711F485E291E09F9393
:102BB0008F931F922F938FEF9EE09F938F930E948E
:102BC0003D0A0F900F900F900F900F900F9081E0A3
:102BD0000895813509F49CC008F49CC0823509F041
:102BE0009DCF81E082C085E29FE00E94A4090E94FF
:102BF0005C15D0CF8D518093E702833009F442C039
:102C000058F48130C1F08230A1F11092E70282E2E3
:102C10009FE00E94A4091BC0853009F445C0D8F18B
:102C2000863099F78EE191E09093E6028093E50279
:102C30008DE691E008C083E291E09093E6028093F4
:102C4000E50289E291E09093E4028093E3028091AF
:102C5000E702882309F49ECF1F928F938EE19FE0B5
:102C60009F938F930E943D0A0F900F900F900F90AB
:102C700091CF82E291E09093E6028093E50282E3B5
:102C800091E0E1CF81E291E09093E6028093E5024A
:102C90008EE391E0D8CF80E291E09093E6028093BA
:102CA000E5028BE491E0CFCF8FE191E09093E602D3
:102CB0008093E5028AE591E0C6CF8EE180932301FF
:102CC00082E3809322018AE08093210184E1809352
:102CD000200188E080931F0188E280931E0184E137
:102CE0009FE00E94A40956CF8AE0E091E502F091AE
:102CF000E6023097D1F02081082E000C990B820F4C
:102D0000911D8F3F910541F03CF08FEF808307C00C
:102D10008FEFEBCF86EFE9CF97FFF8CF108280815E
:102D20001F928F938BE09FE09BCF88E09FE0D9CFED
:102D30008BEF9EE00E94A4094ACF80E00895109294
:102D4000A8028091E20280FF08C087EB97E09F9382
:102D50008F930E943D0A0F900F9008958091E20298
:102D600083FF7EC089EC95E00E94A40980919C02BB
:102D70001F928F9384EC95E09F938F930E943D0A5E
:102D800082EC95E00E94A40980919D02282F082ED4
:102D9000000C330B3F938F938FEB95E09F938F93B2
:102DA0000E943D0A8DEB95E00E94A40980919E024D
:102DB000282F082E000C330B3F938F938AEB95E05E
:102DC0009F938F930E943D0A88EB95E00E94A4098F
:102DD00080919F02282F082E000C330B3F938F9376
:102DE00085EB95E09F938F930E943D0A83EB95E0DE
:102DF0000E94A4098091A002282F082E000C330BFA
:102E00003F938F9380EB95E09F938F930E943D0AB1
:102E10008DEA95E00E94A409809196021F928F93FB
:102E20008AEA95E09F938F930E943D0A88EA95E095
:102E30000E94A409809195021F928F9385EA95E0E4
:102E40009F938F930E943D0A82EA95E00E94A40915
:102E50008DB79EB74C960FB6F8949EBF0FBE8DBF30
:102E60000E94E30B9C0190919D0280919E02982B01
:102E700021F030939A022093990290919F028091C1
:102E8000A002982B21F03093980220939702E091B2
:102E9000EA02F091EB02309749F082E080939B02C6
:102EA0000480F581E02D8BE992E009940895EF927A
:102EB000FF920F931F93CF93DF9380916C029091B9
:102EC0006B02892B90916A02892B80930A02909160
:102ED0006D02992391F0892B80930A0220E08CE007
:102EE00092E0FC013191CF0131112F5FF2E082318C
:102EF0009F07B9F721110E942410E091EA02F09196
:102F0000EB023097C9F10280F381E02D8AE092E074
:102F100009958091E20282FF2FC080FF04C087E400
:102F200093E00E94A409CAE0D2E082E1E82E82E0A8
:102F3000F82E01E413E08091E20280FF0BC088814B
:102F40001F928F931F930F930E943D0A0F900F9033
:102F50000F900F902196EC16FD0669F78091E20222
:102F600080FF0AC08FE393E0DF91CF911F910F9113
:102F7000FF90EF900C94A409DF91CF911F910F91D6
:102F8000FF90EF90089590E080E00E941F0C90E089
:102F900080E00E94090C10926B0210926A020E945B
:102FA000571786E0EBE9F2E0DF011D928A95E9F719
:102FB0001092960210929402109295020C94AE1602
:102FC000809313030C94C31780911303982F96706A
:102FD000963019F488600C94E017877FFCCF21E0CD
:102FE00030E001C0220F8A95EAF720958091130303
:102FF00082230C94E0179091690280958923809335
:103000006902282F277091F4282F082E000C330B0B
:103010009217130659F09091730292FD07C085959F
:10302000859585950E94EF1710926902089521E019
:1030300030E001C0220F8A95EAF780911303822BBA
:103040000C94E01780936E020C94C317882321F030
:103050000E942A100C9457170895882339F09091F4
:103060006C02982B90936C020C9457170895882348
:10307000B1F19CEF980F913A70F4ECE0F2E091918D
:10308000891303C0DF0111971C9292E0E231F90726
:10309000B1F70C94571790E2980F983050F487705E
:1030A00091E001C0990F8A95EAF7892F0E942A10B2
:1030B000F0CF9BE5980F933020F490E080E00C94E3
:1030C0001F0C98E5980F973120F490E080E00C9465
:1030D000090C803F20F00E94EC0C0C94AE16089571
:1030E000CF93DF93D82FC0917302C2FB882780F95A
:1030F0008D1711F1D0FBC2F9C09373026091720277
:1031000084E090E00E9429356C2F82E290E00E94DA
:10311000293582E00E94FB178091E20280FF0CC0FB
:103120001F92DF938AE293E09F938F930E943D0A60
:103130000F900F900F900F90DF91CF9108954F92C5
:103140005F926F927F928F929F92AF92BF92CF9237
:10315000DF92EF92FF920F931F93CF93DF93FC01C7
:103160006280448081E08483E0EDF7E07490EFE4D6
:10317000F8E0E491CEEBD2E03CEAE32E32E0F32E2D
:103180004CEDC42E42E0D42E52E0A52EBB24B394C5
:1031900088248A94912C55245A94E7190E2F10E014
:1031A00082E0861530F08091DD0288838091DE0216
:1031B0008983411021C01B821A8297014A8169814B
:1031C00088810E94560C259683E0E80EF11CCC16EF
:1031D000DD0631F7DF91CF911F910F91FF90EF90B6
:1031E000DF90CF90BF90AF909F908F907F906F9027
:1031F0005F904F900C94B2118B818823E9F081503D
:103200008B83859DC00111246C8170E00E945B342A
:10321000FB01FF27E053F84F8491E82FE719E59D64
:10322000C0011124B8010E945B348091DF02689FC5
:10323000B00111247A83C1CF0E94EB342091DF02C8
:10324000269521582A9DA0012B9D500D1124452F14
:103250005527841795070CF0B0CF82E0861588F4C7
:103260000E94EB34B4010E946F3488830E94EB34D7
:103270002091DE022695622F70E00E946F34280FA5
:1032800029831A828091DF02893C20F088EC8C83AC
:103290008B8393CF8431D8F784E1F9CFCF92DF923B
:1032A000EF92FF926B017C010E94470CB701A601CF
:1032B00088E090E0FF90EF90DF90CF900C943B354A
:1032C0002F923F924F925F926F927F928F929F9236
:1032D000AF92BF92CF92DF92EF92FF920F931F9324
:1032E000CF93DF9300D000D000D0CDB7DEB7582EFB
:1032F000262E342E2E839091DC0290FF47C0E92FBA
:10330000E695AE2FB0E0A853BE4F8C918093A702F4
:103310009E7F923009F053C09E012F5F3F4F852D55
:103320000E94560C4B8169818A810E9488135092B9
:10333000DD022092DE023092DF028E81882309F4C2
:103340009FC06091DC027091DD028091DE0290915D
:10335000DF020E944E198091E20280FF17C0809127
:10336000DF021F928F938091DE021F928F938091D4
:10337000DD021F928F9386E697E09F938F930E94C2
:103380003D0A0FB6F894DEBF0FBECDBF26960FB62E
:10339000F894DEBF0FBECDBFDF91CF911F910F918B
:1033A000FF90EF90DF90CF90BF90AF909F908F9065
:1033B0007F906F905F904F903F902F900895823054
:1033C00019F43090DF02B3CF863019F45090DD024B
:1033D000AECF8930D9F3893109F0A9CFE9518E2FC9
:1033E00081708C838E2F809581708D83E695F0E0BF
:1033F000EE54F84FE590F490FF248CEAC82E82E05A
:10340000D82EB12CA12C10E000E096E0692E712C92
:103410002BE8822E27E0922EC501B3010E945B3477
:103420009C81452C91112AC0460E8091E20280FFBA
:1034300012C0FF92EF921F928D818F931F924F9235
:103440001F930F939F928F920E943D0A0FB6F8949C
:10345000DEBF0FBECDBF9601432D622D842D0E948D
:10346000560C0F5F1F4FAE0CBF1C93E0C90ED11C52
:103470000630110589F60E94B21159CF461AD5CFF0
:103480008091E20280FF82CF1F923F921F922F9283
:103490001F925F928FE397E070CFECEDF2E04381F3
:1034A00028E0421B08F440E021E0628181810C9415
:1034B0006019ECEDF2E0438128E0420F08F44FEF91
:1034C00021E0628181810C946019ECEDF2E062816F
:1034D00028E0621B08F460E021E0438181810C94C4
:1034E0006019ECEDF2E0628128E0620F08F46FEF02
:1034F00021E0438181810C946019ECEDF2E081813F
:1035000021E04381628188500C946019ECEDF2E077
:10351000818121E043816281885F0C9460198091F0
:10352000E002882319F081508093E0026091DC0270
:103530007091DD028091DE029091DF020C944E19B1
:103540008091E002833018F48F5F8093E0026091F5
:10355000DC027091DD028091DE029091DF020C941A
:103560004E199091DC0290FF68C0917081113CC0AF
:1035700092609093DC026623F1F16091DC0270911D
:10358000DD028091DE029091DF020E944E1980914F
:10359000E20280FF0FC08091DC0286951F928F931C
:1035A00083E297E09F938F930E943D0A0F900F90C4
:1035B0000F900F906091DC02669570E04BE050E058
:1035C00080E191E00E94FB34892B09F10E949F1653
:1035D00081E08093A40220E04091DF026091DE024E
:1035E0008091DD020C9460198B3210F09465C1CF8C
:1035F000880F982BBECF8091E20280FFDBCF8091B5
:10360000DC0286951F928F9385E097E0CBCF81E017
:103610008093A8020E94E30B9093A2028093A102E0
:103620008091E20280FFD4CF8CEE96E09F938F933F
:103630000E943D0A0F900F90CBCF08958091DC023D
:103640008695815009F48AE261E00C94B11A809168
:10365000DC0286958F5F8B3208F081E061E00C948C
:10366000B11A9091DC0290FF07C09695981720F050
:10367000961710F40C94271B61E00C94B11AECED32
:10368000F2E083E0808311828FEF82838383148250
:1036900060817181828193810C944E1910926C0229
:1036A000ECE0F2E086E0DF011D928A95E9F70C94E8
:1036B000C3171F93CF93DF93CDB7DEB7AA970FB68B
:1036C000F894DEBF0FBECDBF88E093E02091F100FB
:1036D000DC012D93CD01B3E080319B07B9F78091D8
:1036E0000903833009F472C0B8F4813009F449C089
:1036F000823009F4B3C08091E80083FF91C28091C9
:103700000803909109039A3008F08AC2E92FF0E08B
:10371000E053FA4C0C9483348A3009F48EC08B3019
:1037200009F471C0893039F780910803813219F7A3
:1037300080910C0390910D03009711F00297D9F638
:103740008091E800877F8093E8008091E80082FF05
:1037500038C09091F3008091F200029731F480918B
:10376000F100813011F0863021F48091F1008093D6
:10377000FB028091E8008B778093E8000E94C00AEA
:10378000BACF80910803813A09F0B5CF8091E80063
:10379000877F8093E80080910C0390910D03892B23
:1037A00061F468E08CEF92E070E00E94720B80910F
:1037B000E8008B778093E8009ECF60E090E080E0A7
:1037C000F3CF809106038111C0CF95CF809108037C
:1037D000813A09F090CF80910C0390910D03892BD1
:1037E00009F089CF8091E800877F8093E80080917D
:1037F000E80080FFFCCF809124018093F10080914C
:10380000E8008E77B9CF80910803813209F073CF39
:1038100080910C0390910D03892B09F06CCF80915E
:10382000E800877F8093E8000E94C00A80910A0325
:10383000809324010E944E1B5ECF80910803813249
:1038400009F059CF8091E800877F8093E8000E94BB
:10385000C00A80910B038093FA024DCF8091080338
:10386000813A09F048CF8091E800877F8093E80093
:103870008091E80080FFFCCF8091FA02BECF8038B3
:1038800099F0823809F0CCC180910C038F70873099
:1038900008F0C6C18093E9008091EB0085FB882782
:1038A00080F91092E90006C080910403909105030D
:1038B000911182609091E800977F9093E800809347
:1038C000F1001092F1008091E8008E77A5C1882365
:1038D00009F493C1823009F0A3C180910A038111D8
:1038E00096C180910C038F702FEF280F263008F0BF
:1038F00097C18093E9002091EB0020FF88C19330AD
:1039000031F48091EB0080628093EB0080C1909154
:10391000EB0090619093EB0021E030E001C0220FBA
:103920008A95EAF72093EA001092EA008091EB0072
:103930008860EACF811174C110910A031F778091CA
:10394000E3008078812B8093E3008091E800877FFB
:103950008093E8000E94C00A8091E80080FFFCCFBD
:103960008091E30080688093E30082E0111183E09E
:103970008093060355C18058823008F051C12091D0
:103980000A0330910B032C3DE3E03E07A1F583E0F1
:103990008A838AE289834FB7F894DE01139620E088
:1039A0003EE051E2E32FF0E050935700E49120FF16
:1039B00003C0E295EF703F5FEF708E2F90E0EA302A
:1039C000C0F0C7968D939D932F5F243159F74FBF59
:1039D0008091E800877F8093E8006AE270E0CE0182
:1039E00001960E94720B8091E8008B778093E8002B
:1039F00017C1C096E7CF80910C0390910D03432F20
:103A000055274330510509F44AC078F54130510536
:103A100009F47AC08BE790E0EFEDF1E14230510517
:103A200009F0FEC02091E800277F2093E800209154
:103A30000E0330910F038217930708F49C0140E0B6
:103A40002115310509F065C0411163C08091E8007E
:103A500082FDC9CF80910603882329F2853019F2AF
:103A60008091E80083FFF2CFBECF4132510509F4C7
:103A70003CC04232510509F0D3C08430910508F0B2
:103A8000CFC0FC01EE0FFF1FE950FE4F0190F08107
:103A9000E02D8D509E4FDC018C9190E01AC03327B1
:103AA00021303105D1F02115310561F02230310589
:103AB00009F0B6C0ECE6F2E1E4918E2F90E0ECE67E
:103AC000F2E107C0EAE9F2E1E4918E2F90E0EAE941
:103AD000F2E1009709F4A4C0A5CFE2E8F2E1E49195
:103AE0008E2F90E0E2E8F2E1F4CF8430910508F007
:103AF00097C0880F991FFC01E150FE4F0190F081A3
:103B0000E02D89E090E08ECF82E190E0EAE5F2E1FD
:103B100089CF80910603882309F465CF853009F4A5
:103B200062CF8091E80083FD5ECF8091E80082FD46
:103B30008DCF8091E80080FF83CF9091F30080913A
:103B4000F2002115310519F08830910550F041E05F
:103B5000089709F040E08091E8008E778093E800B4
:103B60006FCF44914093F100319621503109019675
:103B7000E8CF803809F054C08091E800877F8093B7
:103B8000E800809107038093F1009DCE811148C029
:103B900010910A03123008F043C08091E800877F3B
:103BA0008093E800109307030E94C00A112311F0CC
:103BB00084E005C08091E30087FDFACF81E0809327
:103BC000060342E061EC81E00E94DF0A42E261EC20
:103BD00084E00E94DF0A42E261EC82E00E94DF0A98
:103BE00042E260EC83E00E94DF0A42E261EC85E0A1
:103BF0000E94DF0A8091060313C080910A0381307E
:103C000079F481E0933009F080E08093050310920D
:103C1000E9008091E800877F8093E8000E94C00A55
:103C20008091E80083FF0AC08091E800877F80933D
:103C3000E8008091EB0080628093EB00AA960FB6BB
:103C4000F894DEBF0FBECDBFDF91CF911F910895D5
:103C5000CF93C82F1F928F9386E49FE09F938F93FB
:103C60000E943D0A81E001C0880FCA95EAF70E94D0
:103C700022180F900F900F900F90CF910C944E1B25
:103C800069EE7EEF90E080E00E94473560E082E0E0
:103C900090E00E94293560E083E090E00E942935A1
:103CA00010926E0260E084E090E00E94293560E0AE
:103CB00082E290E00E94293560E085E090E00E9479
:103CC000293560E086E090E00E9429356FEF87E0BB
:103CD00090E00E94293540E050E0BA0188E090E091
:103CE0000E943B3560E08DE090E00E94293540E085
:103CF00050E0BA0188E190E00E943B3560E087E146
:103D000090E00E94293540E050E0BA018CE190E05B
:103D10000E943B3570E060E080E290E00E94473511
:103D200040E050E0BA0188E190E00E943B3580E03D
:103D30000E9479140E94911440E050E0BA018FE093
:103D400090E00E943B3540E050E0BA0183E190E012
:103D50000C943B35CF92DF92EF92FF92CF93DF939B
:103D60008B3109F40FC108F0A3C08B3009F4C9C02E
:103D700008F081C0863009F4D7C048F4853009F4D2
:103D8000A5C083E19DE00E94A40980E0DDC08730EA
:103D900009F4E1C08830A9F783E090E00E9415356E
:103DA0001F928F938EEF99E09F938F930E943D0A0D
:103DB00082E090E00E94153583FB992790F91F92CD
:103DC0009F9382FB992790F91F929F9381FB9927DC
:103DD00090F91F929F93982F91701F929F931F921B
:103DE0008F9385EB99E09F938F930E943D0A0E94E9
:103DF0004E1587FB222720F91F922F9386FB22273F
:103E000020F91F922F9385FB222720F91F922F93D1
:103E100084FB222720F91F922F9383FB222720F96E
:103E20001F922F9382FB222720F91F922F9391FB41
:103E3000222720F91F922F93292F21701F922F9351
:103E400081FB222720F91F922F93282F21701F9288
:103E50002F939F938F9380ED98E09F938F930E9471
:103E60003D0A8DB79EB788960FB6F8949EBF0FBED9
:103E70008DBF81E069C0803109F49CC080F48E3030
:103E800009F07FCF9091E202892F8B7F92FF8460AF
:103E90008093E20282FF8BC08EE39DE07FC086317B
:103EA00009F498C0893109F06CCF85EE9BE02BC0F6
:103EB0008A3299F1E0F4873261F128F48E3108F406
:103EC00060CF8D5127C0893209F05BCF81E89DE03A
:103ED0000E94A4090E944E1B9FEF24E38CE09150A6
:103EE00020408040E1F700C000000E948E11833422
:103EF00068F48A3308F098C0853359F0883309F0A4
:103F000040CF8BE19AE00E94A409B3CF833409F03B
:103F100038CF80E00E94281EACCF81EA9DE00E944D
:103F2000A4090E94401EA5CF8091E202807F809369
:103F3000E2028EEB9BE00E94A4098DE99DE00E94C5
:103F4000A40981E08093E102DF91CF91FF90EF908F
:103F5000DF90CF9008959091E202892F8E7F90FF9D
:103F600081608093E20280FF03C085E79DE0CBCFB4
:103F700088E69DE00E94A4098091E202817F8093FF
:103F8000E20277CF9091E202892F8D7F91FF8260CC
:103F90008093E20281FF08C08BE59DE00E94A409A6
:103FA0008091E2028160EBCF8DE49DE0ACCF8EE2A8
:103FB0009DE0A9CF9091E202892F877F93FF8860CF
:103FC0008093E20283FF03C082E29DE0E7CF85E1B8
:103FD0009DE099CF8FB7F894C090EF02D090F00297
:103FE000E090F102F090F2028FBFD091FA02C091FE
:103FF00024010E94350CFF92EF92DF92CF921F9224
:10400000DF931F92CF931F928F9388EA9CE09F9338
:104010008F930E943D0A8DB79EB70C960FB6F89409
:104020009EBF0FBE8DBF25CF895374CFCF93C82FAE
:10403000882361F18CEF8C0F813A08F064C0809185
:10404000E102813029F18823C1F0823009F44AC0AD
:104050001092E102ECE0F2E0DF018D91C81709F463
:1040600045C082E0A231B807C1F76C2F8AE092E028
:104070000E94EF0BCF910C94571780916C02823203
:1040800049F78C2F0E94AA1E882321F3CF9108950F
:1040900080916C028232A9F3C431C9F048F4CB306C
:1040A00059F0C031C1F084E293E00E94A40911C02C
:1040B000C93269F0C833B9F78EEB9BE00E94A409BE
:1040C00086E293E00E94A40981E08170DDCF109226
:1040D000E10280E0FACF82E08093E10288E30E946F
:1040E0008315F2CF8C2FCF910C9483158191C81337
:1040F00003C0DF0111971C9282E0E231F807B1F7AB
:104100000E945717B2CF80E28C0F883068F4C770D6
:1041100021E030E001C0220FCA95EAF780916C02DD
:10412000822B80936C02A6CFEBE5EC0FE33040F4DA
:10413000F0E0EE57FE4F808190E0CF910C941F0C81
:10414000E8E5EC0FE73150F4F0E0EE0FFF1FEB571E
:10415000FE4F80819181CF910C94090CC03F08F4EF
:1041600095CF8C2F0E94E80DCF910C94AE161F9323
:10417000CF93DF93182FD0E0C0E0893311F4C0E56E
:10418000D0E0812F0E941620209731F4812FDF91FB
:10419000CF911F910C9437188FE99FE00197F1F7A9
:1041A00000C000002197F0CF0F931F93CF93DF93B0
:1041B000C62FD42F022FFC0182818823A1F06093A7
:1041C00012030E94E30B9093110380931003C770B6
:1041D00081E001C0880FCA95EAF7DF91CF911F9166
:1041E0000F910C942D1880911203681335C08091A3
:1041F0001003909111030E94D40B883C910560F547
:1042000010E21D0FCD17B9F080E28C0F883040F41A
:10421000C77081E001C0880FCA95EAF70E9426188E
:10422000183048F481E09D2F977001C0880F9A954F
:10423000EAF70E942D18802F0E94B720183098F4BA
:10424000D77081E001C0880FDA95EAF7DF91CF914E
:104250001F910F910C942618C77081E001C0880F40
:10426000CA95EAF7F3CFDF91CF911F910F9108958F
:104270003F924F925F926F927F928F929F92AF92F6
:10428000BF92CF92DF92EF92FF920F931F93CF9343
:10429000DF9300D000D00F92CDB7DEB78C01FC01C8
:1042A00083819481892B31F08081918189238F3F93
:1042B00009F0FAC50F900F900F900F900F90DF91BB
:1042C000CF911F910F91FF90EF90DF90CF90BF9013
:1042D000AF909F908F907F906F905F904F903F90A6
:1042E00008950E94D314F82E682F89819A810E9424
:1042F000621069817A818F2D0E94C6147C01F801B9
:104300008281882309F4C3C5970122513F4520319A
:10431000310508F08FC58FEF93E00E941535FEEE52
:10432000EF0E57EA852E52E0952E8823A1F1809159
:104330006902877009F4BECFF8018281882309F4ED
:10434000B9CF8091730282FDB5CF82E00F900F90BC
:104350000F900F900F90DF91CF911F910F91FF90D1
:10436000EF90DF90CF90BF90AF909F908F907F9015
:104370006F905F904F903F900C94FB17811424E056
:104380009206A9F2C4010E941535811101C0EA9478
:104390003FEF831A930AE110F1CF1C821B82442461
:1043A00043944AE0342E74018FEFE81AF80AC401EE
:1043B0000E94153589831A82882309F4B8CF9FEFAC
:1043C000980F933000F58A83498292E0890E911C00
:1043D000C7010E9415358B83882309F4A8CFFE01FD
:1043E00031967F01F70120812223E9F2213009F083
:1043F00049C091818281913041F4F2E0EF0EF11CCD
:104400000E94B72009C04701EACF923049F422E068
:10441000E20EF11C0E9416203FEFE31AF30AE2CFEE
:10442000933031F432E0E30EF11C0E943718F4CFE0
:10443000943021F08FEFE81AF80AEECF92E0E90EFF
:10444000F11C30E020E0B7016F5F7F4FF701418141
:104450008053990B8A30910550F021503109E0F2D8
:104460008FE99FE00197F1F700C00000F6CF329E80
:10447000F001339EF00D11249C012E0F3F1F842F5D
:104480007B01E1CFE22FF0E0E552FE4F5490822F06
:1044900086958695869590E0FC01E553FE4F6490E5
:1044A0002770712C022E02C0759467940A94E2F76B
:1044B000E1E06E227724FC01E554FE4FA490B12C7C
:1044C000022E02C0B594A7940A94E2F7F1E0AF225D
:1044D000BB24FC01E555FE4FC490D12C02C0D594FD
:1044E000C7942A95E2F721E0C222DD246114710409
:1044F00019F081EE0E941620A114B10419F086EE85
:104500000E941620852D0E94B720AB2819F086EE58
:104510000E943718672819F081EE0E943718CD28BD
:1045200009F47ACF8CE26CCF81E00E9417180E94C8
:10453000E417FDCE81E00E94EF17F9CF82E0F5CFBE
:1045400095EFE9169CE5F90609F46AC008F464C021
:1045500027E245EE66EEF6EFEF16FCE5FF0609F4FE
:1045600092C4882309F4B1C41092120323E0E21626
:104570002DE5F20608F05BC03AEFE3163CE5F306E2
:1045800030F4C70182509C45449708F056C00E9401
:104590004E15909373028093720290E1E9169CE5A8
:1045A000F90609F433C108F0A5C0F8E0EF16FCE500
:1045B000FF0609F41DC108F06EC034E0E3163CE5C7
:1045C000F30609F407C108F050C092E0E9169CE533
:1045D000F90609F4F9C0809172028260E3E0EE16F8
:1045E000ECE5FE0609F4F3C060917202F0907302EC
:1045F00084E090E00E9429356F2D82E290E00E94D5
:1046000029350E944E1B93CE27E245EE65EE3BC452
:1046100026E241EE60EE37C427E245EE64EE33C495
:1046200026E241EE62EE2FC428E241E0EFCF81E6C0
:10463000E8168DE5F80609F4AACF80916C02F6E140
:10464000EF16FCE5FF0609F059C48A7A91E009F4F7
:1046500090E09093120269E2811165E38AE092E0B2
:104660000E94EF0B0E94571762CE80917202806108
:10467000F6E0EF16FCE5FF0609F4A9C0809172028E
:10468000886027E0E2162CE5F20608F4A0C08091CD
:10469000720280629CC0809172028D7F3CE0E316C2
:1046A0003CE5F30609F493C078F4809172028C60C3
:1046B0009AE0E9169CE5F90609F489C008F49CC063
:1046C000809172028E7F83C080917202877FFEE0AC
:1046D000EF16FCE5FF0609F47AC0809172028B7F29
:1046E0002FE0E2162CE5F20608F471C08091720208
:1046F0008F7E6DC03CEFE3163CE5F30609F482C003
:10470000A0F594E1E9169CE5F90609F493C098F444
:10471000F2E1EF16FCE5FF0609F47CC0809172021D
:104720008F7B23E1E2162CE5F20608F450C080915D
:104730007202837F4CC03AEFE3163CE5F30609F4BE
:104740004DC008F051C095E1E9169CE5F90609F065
:104750004BCF8091720282FB992790F921E092273A
:1047600090FB82F990FB83F932C0E114EDE5FE067F
:1047700009F456C0A0F48091730283602EEFE21614
:104780002CE5F20671F1809173028D7F3FEFE31605
:104790003CE5F30630F1809173028C7F22C082E009
:1047A000E8168DE5F80609F454C008F44CC0E1E6BB
:1047B000EE16EDE5FE0609F017CF90917202892FF3
:1047C0008F7E94FF806103C080917202816080932C
:1047D00072020ACF809172028460F9CF80917302D5
:1047E00081608093730200CF809173028260F9CF61
:1047F000809172028064EBCF0E944E1B8091720206
:104800008068E5CF809173028E7FEBCF809172023A
:104810008F7DDDCF0E944E1B809172028F77D7CFA4
:1048200080917302982F909591708E7F892B90FBC9
:1048300081F9D7CF0E944E1B90917202892F97FB6E
:1048400087F98058C4CF61E08EE090E00E9429355E
:10485000CBCE60E0F9CF85E343C38091E20280FFD5
:1048600010C08091DC02809581701F928F938AEC3A
:1048700092E09F938F930E943D0A0F900F900F90AC
:104880000F908091DC0280FF2EC08E7F8093DC022F
:104890006091DC027091DD028091DE029091DF0276
:1048A0000E944E198091E20280FF0FC08091DC02CD
:1048B00081701F928F938BE592E09F938F930E945C
:1048C0003D0A0F900F900F900F900E949F162FEFB0
:1048D00030E782E0215030408040E1F700C0000026
:1048E0000E94B21124CD81608093DC028091E202AB
:1048F00080FF0DC01F9281E08F9383E992E09F9328
:104900008F930E943D0A0F900F900F900F9080910F
:10491000DC0261E086950E94B11A09CD4EE15BE1AF
:1049200067E27BE10E94410C02CD47E25BE16EE170
:104930007BE1F8CF46E85AE16DE77AE1F3CF45E64F
:104940005AE161E77AE1EECF4DE45AE169E57AE1B7
:10495000E9CF49E55AE16DE47AE1E4CF40EA5AE172
:104960006FE87AE1DFCF61E081E0D5CF65E082E0FA
:104970000E94311BDCCC68E086E0FACF64E18FE076
:10498000F7CF67E185E1F4CF62E289E1F1CF61E041
:1049900083E2C1CF3BE5E3163DE5F306C9F18CE5C3
:1049A000E8168DE5F80651F19AE5E9169DE5F90658
:1049B00009F0D6C281E029C00E944E1BEFEFF4E35C
:1049C0002CE0E150F0402040E1F700C000000E94E0
:1049D0008E119091E202892F8E7F90FF81608093EB
:1049E000E20280FF05C083E193E00E94A4099FCC0E
:1049F00081E093E0FACF0E94401E99CC809173022F
:104A000082FB882780F991E089270E947018A8C24C
:104A100080E0FBCFC7010E943B10D82EB0C22F2DE3
:104A20002F70C22E8F2D807F19F0C29490EFC92273
:104A3000DD20B9F0CC2069F080E28E0D883010F0D6
:104A4000811009C080916C02C82AC0926C020E9439
:104A500057178E2D4DC080916B02C82AC0926B02F1
:104A6000F6CF8E2D0E943718CC2009F443C080E287
:104A70008E0D883010F0811004C08C2D0E942A10F9
:104A800006C0C09480916B02C822C0926B020E9443
:104A9000571730C03F2D3F70C32E8F2D807F80323F
:104AA00019F0C29480EFC822882089F081E088162E
:104AB00009F481C0DD2009F48BC0BB2009F481C05A
:104AC000F801858180FFC5CF8F7085837AC02091E2
:104AD000730222FF4DC0DD2009F444C0CC2039F020
:104AE00080916C02C82AC0926C020E94571780E025
:104AF0000E941620292D2850330B2430310520F434
:104B00000E94350C0E948E10AA2009F4D3CB80910C
:104B1000690280FDCFCBF801128285958595859538
:104B20000E941718C8010E9438218091690285955A
:104B3000859585950F900F900F900F900F90DF91B6
:104B4000CF911F910F91FF90EF90DF90CF90BF908A
:104B5000AF909F908F907F906F905F904F903F901D
:104B60000C94EF1780E00E943718CC2019F285CF03
:104B7000DD20A1F090916D028C2D892BB11003C026
:104B80000E942D18B7CFE1E0BE12FACF22FDB2CFBE
:104B9000981709F4AFCF80936D02ACCFB11006C067
:104BA0000E9424108C2D0E942618A4CFF1E0BF167D
:104BB00009F4A0CFF5CFDD2031F025E02B1508F466
:104BC00099CF8C2DDDCF34E03B1508F493CFEACF9D
:104BD000BB2041F3F9E38F1209C02FEF37EE83E0DA
:104BE000215030408040E1F700C000008E2D0E942F
:104BF000371880CF8F2D86958695837061F0813030
:104C000009F078CFC7019370D11002C090E080E026
:104C10000E94090C6FCFC7019370D11002C090E0C1
:104C200080E00E941F0C66CF8E2DDD2029F00E94AF
:104C3000E80D0E94AE165ECF0E94EC0CFACF8F2DCD
:104C4000837091F5D11056CF4E2D42954695477001
:104C5000440F440F8E2D8F70042E01C0880F0A94CC
:104C6000EAF72E2D2071E4FE07C02FE030E001C0EE
:104C7000220F4A95EAF720953F2D369536953370E9
:104C8000323069F050F440916E02313029F0822BBD
:104C900084230E9422182ECF842B822BFACF282B1C
:104CA00080916E028227F5CF8695DD2011F08F2D41
:104CB0008170882309F41ECF4E2D4295469547708A
:104CC000440F440F8E2D8F70042E01C0880F0A945C
:104CD000EAF72E2D2071E4FE07C02FE030E001C07E
:104CE000220F4A95EAF720953F2D36953695337079
:104CF000323069F050F440911303313029F0822BA7
:104D000084230E94E017F6CE842B822BFACF282B27
:104D1000809113038227F5CF9F2D9F70F92EDD2000
:104D200029F0892F0E9417188E2D2ACF8E2D0E94D0
:104D300026188F2D0E94EF17DDCE8E2DE2EF8E16F6
:104D4000B1F1E81570F0F0EF8F16D1F021EF821677
:104D500091F0DD2009F45EC0B1107BCE8F2D8F71F4
:104D60002AC033EF831651F194EF8912F2CF80916C
:104D7000730282FF2FC08F2D8F71DD20D9F21BC0EF
:104D8000DD2081F0E4E0EB1508F4B4CE2F2D2F7177
:104D900081E090E001C0880F2A95EAF79091130313
:104DA0008927AFCFF5E0FB1508F4A4CEEFCF8F2D08
:104DB0008F71D110BFCF0E9417189CCE80E0DD20EC
:104DC00009F49FCF9F2D9F7181E001C0880F9A95B4
:104DD000EAF797CFDD2099F02F2D2F71F22E822F39
:104DE0000E9417188091730282FD07C038E0F39E7D
:104DF000C00111248360809369028F2DDCCF81E094
:104E00000E94FB1781E08B1508F074CE82E00E94AF
:104E1000FB1770CEBB2059F0893309F0E7CE9FEF26
:104E2000E7EEF3E09150E040F040E1F7DDCE8F2D6A
:104E30008F7180CFF0E1EF16FFE5FF0609F474CB28
:104E400021E1E2162FE5F20609F478CB93EFE9169B
:104E50009CE5F90609F4DCCB08F072CBF8EDEF160F
:104E6000FCE5FF0609F4D0CB29EDE2162CE5F206AD
:104E700009F4DACB37EDE3163CE5F30609F071CB24
:104E800026E241EE61EEC8010E94D42050CA30E112
:104E9000E3163FE5F30609F44DCB91E1E9169FE5F2
:104EA000F906A1F682E047CB85E0DE01119601907C
:104EB0000D928A95E1F7F801228189819A81211169
:104EC00010CA0E943B10F82E14CAF6E1EF16FCE55A
:104ED000FF0609F045C0809112028111BCCC89E225
:104EE000ECE0F2E022E132E09191891303C0DF01AE
:104EF00011971C922E173F07B9F7B4CB82722CEC96
:104F0000E2162CE5F20609F429CD08F0ABC096ECC8
:104F1000E9169CE5F90609F40DCD08F07AC0F3EC2A
:104F2000EF16FCE5FF0609F4F9CC08F061C032EC9D
:104F3000E3163CE5F30609F490CC9EEDE9169CE5FA
:104F4000F90609F458CD08F025CDE114FCE5FF067B
:104F500009F432CD21E0E2162CE5F20609F439CD50
:104F6000F8018281E080F180882309F453CDC701E4
:104F70000E94D314D82E682FC7010E946210B70177
:104F80008D2D0E94C6140E949C0E7C01882EF80173
:104F9000D280B580B2943FE0B322809169028770DD
:104FA000C1F0AD2CDD20B1F08F2D807F803421F059
:104FB00080E28E0D883068F08091730282FD09C016
:104FC00082E00E94FB17809169028770AA24A39453
:104FD0008111A12C9F2C92942FE09222FBE0F915D5
:104FE00008F488CDE92DF0E0E652FA4C0C948334B5
:104FF00094ECE9169CE5F90609F497CC4DE75AE1E3
:1050000066E87AE1E5ECEE16ECE5FE0609F48ACCFA
:1050100094CFF9ECEF16FCE5FF0609F495CC88F483
:1050200037ECE3163CE5F30609F489CC41E75AE195
:1050300065E67AE198ECE9169CE5F90609F472CC8C
:105040007CCFEAECEE16ECE5FE0609F482CC4FE8E4
:105050005AE160EA7AE1FBECEF16FCE5FF0609F4A1
:1050600061CC6BCF21EDE2162CE5F20609F486CC7B
:10507000B8F48EECE8168CE5F80609F477CC08F461
:1050800072CCEFECEE16ECE5FE0609F474CC6EE0A3
:1050900089E0F0EDEF16FCE5FF0609F469CC4DCF91
:1050A00024EDE2162CE5F20609F46ECC78F482EDDC
:1050B000E8168CE5F80609F464CC61E088E193ED2C
:1050C000E9169CE5F90609F426CC37CFE5EDEE1696
:1050D000ECE5FE0609F45BCC6AE285E2FDE5EF163D
:1050E000FF0609F445CC29CF1F93CF93DF9380911E
:1050F0003602807FA9F480913302882389F0809161
:105100006802D09137026091310270913202A09111
:105110003402B0913502C62FC72316E0D81304C05D
:10512000DF91CF911F91089590E0109711F0CF3F3C
:1051300019F401968770F2CF189F9001199F300DD6
:105140001124F901E85CFD4F41814713F2CF408102
:105150004613EFCF42814111ECCF438154814A1B6A
:105160005B0B483C510528F7809136028F708061B7
:1051700080933602F901E35CFD4F80818F7080617E
:10518000808381E392E00E943821DF91CF911F91CB
:105190000C943110AF92BF92CF92DF92EF92FF92B8
:1051A0000F931F93CF93DF93CDB7DEB761970FB601
:1051B000F894DEBF0FBECDBF8C0185E0F801DE01A3
:1051C0001D9601900D928A95E1F7F801E28081E346
:1051D000A82E82E0B82E60913402709135026115DC
:1051E000710509F432C19091310240913202892F48
:1051F00084238F3F09F429C120813181C380D48069
:10520000F0903302F601E61BF70BFF2009F4E8C02B
:1052100080913602582F507FE83CF10508F0ABC072
:10522000511177C0FE2C431321C092131FC0E1100F
:105230001DC08F70806180933602C5010E943821A5
:1052400080913602F80185838F2D61960FB6F89410
:10525000DEBF0FBECDBFDF91CF911F910F91FF90A9
:10526000EF90DF90CF90BF90AF900895CD2829F0B8
:10527000822F83238F3F09F003C180E0F82FF17064
:10528000DF2E80FF3CC0809168024091370256E0DB
:10529000841315C02D873E878D859E850E9402153B
:1052A000292F22952F702230F0F0243018F59F70AE
:1052B000F1F0F8019581907FD1F4D12C1EC090E0DF
:1052C000589FF001599FF00D1124E85CFD4F61815A
:1052D000361306C06081261303C06281E6120FC038
:1052E00001968770D5CF9F7011F0882331F3805ECF
:1052F000883018F3C8010E943821FD2CA5CFEE207C
:1053000009F4A2CF80913602816080933602F12C9D
:105310009BCF431306C0921304C0F801EE2009F49A
:1053200079C0C8010E940E15882309F1EE20F9F01A
:1053300080913602803270F0209131023091320239
:1053400038872F831986DB86CA868C87CE0107961D
:105350000E94382186E0F801A1E3B2E001900D92AD
:105360008A95E1F70E947428FF24F3946DCFC80159
:105370000E943821F9CF51110AC081E392E00E94C6
:10538000382186E0F50111928A95E9F7C0CF4313E1
:105390000FC092130DC0E1100BC0F8018583C80146
:1053A0000E94382186E0F50111928A95E9F74CCFE9
:1053B000C8010E940E158823D1F2EE20C1F280911F
:1053C0003602803238F220913102309132023A8333
:1053D00029831B82DD82CC828E83CE010196B8CFD9
:1053E000E83CF105F8F6FE2CEE2009F243131FC04D
:1053F00092131DC08091360280FD10C0982F907FBF
:1054000069F0F8018583903F31F0982F907F905F8D
:105410008F70892B8583C8010E94382186E0F801AE
:10542000A1E3B2E001900D928A95E1F70DCFC8019A
:105430000E940E1581118ECF80913602816080937B
:105440003602C8010E943821FFCEEE2009F48FCF2A
:10545000C8010E940E15F82E882309F488CF86E033
:10546000F801A1E3B2E001900D928A95E1F78091F5
:105470003102909132020E9402150E947428E4CEFB
:1054800081E08E25FBCE1F93CF93DF93CDB7DEB7A0
:1054900067970FB6F894DEBF0FBECDBF4B8B5C8B0A
:1054A0006D8B7E8B8F8B611110926B021A8A198A19
:1054B00085E0FE017396DE011D9601900D928A959E
:1054C000E1F786E0FE013D96DE01179601900D9210
:1054D0008A95E1F7CE0107960E94CA28882389F0B1
:1054E00016E08091680290913702891349C067964F
:1054F0000FB6F894DEBF0FBECDBFDF91CF911F91E5
:10550000089586E0FE013796DE01119601900D9216
:105510008A95E1F78A859B85892B11F38F81988580
:1055200089238F3FE9F22091370230E0C9010196CB
:1055300087709927409168024817190671F40E94F4
:105540004E1B109237021092680286E0E1E3F2E00F
:10555000DF011D928A95E9F7C3CF96E0929FD001B3
:10556000939FB00D1124A85CBD4FFE0131960190B0
:105570000D929A95E1F7809337020E943110B0CFD7
:10558000819FC0011124885C9D4F0E94CA288823F6
:1055900009F4ADCF8091680290E001968770992759
:1055A000809368029ECF4F925F926F927F928F920C
:1055B0009F92AF92BF92CF92DF92EF92FF920F93A2
:1055C0001F93CF93DF93CDB7DEB72A970FB6F8942A
:1055D000DEBF0FBECDBF8E010F5F1F4F8AE0F80107
:1055E00011928A95E9F793EBE92E91E0F92E680183
:1055F00028EB422E21E0522E66246394712C48EC55
:10560000842E41E0942EF70181917F018F3F09F4B0
:1056100045C0F894E82FE295EF70F0E021A18F707B
:10562000A30102C0440F551F8A95E2F7CA01922FC9
:10563000982B91A392A18095892382A3789400C08E
:10564000E8EBF1E021E030E0B12CA12C41914F3F9B
:1056500009F47EC0A42FA295AF70B0E090968C9113
:1056600090E04F7002C0959587954A95E2F780FDCE
:105670006FC0C901A82AB92A220F331F8E169F06B0
:1056800029F7F701319780818F3F11F00E94420E78
:1056900050EA5A95F1F7F601B182A082F2E0CF0EFE
:1056A000D11C4E145F0409F0AECF4AE050E0B801BF
:1056B00084E792E00E940835FF24F394009709F4F0
:1056C000F12C892B09F447C08AE0F801A4E7B2E085
:1056D00001900D928A95E1F781E0809371020E941A
:1056E000E30B9093700280936F0280916F02909110
:1056F00070020E94D40B059790F1809174029091F2
:10570000750290938B0280938A0280917602909129
:10571000770290938D0280938C0280917802909111
:10572000790290938F0280938E0280917A029091F9
:105730007B02909391028093900280917C029091E1
:105740007D0290939302809392021092710207C09F
:1057500090E080E08FCF809171028111C6CF8F2DB4
:105760002A960FB6F894DEBF0FBECDBFDF91CF9162
:105770001F910F91FF90EF90DF90CF90BF90AF906F
:105780009F908F907F906F905F904F90089590E0E2
:1057900080E00E942335893E9E4F11F40C9435150C
:1057A00080E008951F920F920FB60F9211242F934D
:1057B0003F934F935F936F937F938F939F93AF9399
:1057C000BF93CF93DF93EF93FF93D091E900DF7006
:1057D0008091EC00C82FC17080FDC0E81092E900F4
:1057E0008091F000877F8093F00078940E94591B8D
:1057F0001092E9008091F00088608093F000CD2B3A
:10580000CF70C093E900FF91EF91DF91CF91BF91ED
:10581000AF919F918F917F916F915F914F913F9148
:105820002F910F900FBE0F901F9018951F920F92FF
:105830000FB60F9211242F933F934F935F936F9363
:105840007F938F939F93AF93BF93EF93FF93809139
:10585000E10082FF15C08091E20082FF11C08091BB
:10586000E1008B7F8093E1002091F8022F5F822F6F
:1058700062E30E944F34992309F4C0C02093F802D8
:105880008091DA0080FF28C08091D80080FF24C07A
:105890008091DA008E7F8093DA008091D90080FFBA
:1058A000E3C080E189BD82E189BD09B400FEFDCF7E
:1058B00081E0809306038BEC91E10E94A409809122
:1058C000F902811109C00E94460A0E94110B8091C1
:1058D000E20084608093E2008091E10080FF1BC0C1
:1058E0008091E20080FF17C08091E2008E7F80935C
:1058F000E2008091E20080618093E2008091D80014
:1059000080628093D80019BC85E08093060383ED04
:1059100091E10E94A4098091E10084FF2FC0809151
:10592000E20084FF2BC080E189BD82E189BD89B599
:10593000982F917080FFFBCF8091D8008F7D80934E
:10594000D8008091E1008F7E8093E1008091E20099
:105950008F7E8093E2008091E20081608093E2007C
:1059600080910703882309F489C084E080930603AB
:1059700087ED91E10E94A409809106038091E100E6
:1059800083FF2BC08091E20083FF27C08091E1005C
:10599000877F8093E10082E08093060310920703E3
:1059A0008091E1008E7F8093E1008091E2008E7F04
:1059B0008093E2008091E20080618093E20042E007
:1059C00060E080E00E94DF0A8091F00088608093B0
:1059D000F0008BED91E10E94A409FF91EF91BF913E
:1059E000AF919F918F917F916F915F914F913F9177
:1059F0002F910F900FBE0F901F9018951092F802E4
:105A00008091F702882309F43BCF8091060384300C
:105A1000C1F49091E9009F702091EC00822F817079
:105A200020FD80E8892B95E09093E9009091EB00B0
:105A300090FF04C09091EE0097FD08C08F70809396
:105A4000E9001092F7021CCF1092F1009091E8004B
:105A500095FDFACF9091E80090FFF0CF9091E8008B
:105A60009E779093E800EACF19BC109206038FEC62
:105A700091E10E94A4091092F9022ECF8091E300D7
:105A800087FD93E09093060373CF78941F921FB61F
:105A90001F9211248F939F93AF93BF938091EF0236
:105AA0009091F002A091F102B091F2020196A11D35
:105AB000B11D8093EF029093F002A093F102B09396
:105AC000F202BF91AF919F918F911F901FBE1F90C7
:105AD00018951F921FB61F9211248F939F93AF9317
